:020000040800F2
:10000000D0F60020011100082D3600082F36000818
:1000100033360008373600083B3600080000000081
:100020000000000000000000000000003F36000853
:10003000413600080000000043360008453600083D
:100040001B1100081B1100081B1100081B110008E0
:100050001B1100081B1100081B1100081B110008D0
:100060001B1100081B1100081B1100081B110008C0
:100070001B1100081B1100081B1100081B110008B0
:100080001B1100081B1100081B1100081B110008A0
:100090001B1100081B1100081B1100081B11000890
:1000A0001B1100081B1100081B1100081B11000880
:1000B0001B1100081B1100081B1100081B11000870
:1000C0001B1100081B1100081B1100081B11000860
:1000D0001B1100081B1100081B1100081B11000850
:1000E0001B1100081B1100081B1100081B11000840
:1000F0001B1100081B1100081B1100081B11000830
:100100001B1100081B1100081B1100081B1100081F
:100110001B1100081B1100081B1100081B1100080F
:100120001B1100081B1100081B1100081B110008FF
:1001300000F002F800F05EF80AA090E8000C82449B
:100140008344AAF10107DA4501D100F053F8AFF278
:10015000090EBAE80F0013F0010F18BFFB1A43F0A5
:100160000103184790090200B009020010F8013B92
:100170000A4413F0030408BF10F8014B1D1108BF17
:1001800010F8015B641E05D010F8016B641E01F8C5
:10019000016BF9D1002D15D010F8014B03F00C03C1
:1001A0000C2BA1EB04040ABF10F8013BA4EB831451
:1001B000A4EB032405F1010314F8016B5B1E01F8A5
:1001C000016BF9D5914238BF10F8013BD1D370478C
:1001D0000023002400250026103A28BF78C1FBD850
:1001E000520728BF30C148BF0B6070471FB51FBD05
:1001F00010B510BD03F08EFB1146FFF7F7FF03F0BB
:10020000CBF903F0ACFB03B4FFF7F2FF03BC03F040
:10021000B1FB00000CB50020019000906C48006814
:1002200040F480306A49086000BF6948006800F403
:10023000003000900198401C0190009818B9019876
:10024000B0F5A06FF1D16248006800F4003010B141
:100250000120009001E0002000900098012843D187
:100260005C48006840F010005A4908600846006881
:1002700020F0030008600846006840F002000860B3
:1002800053484068524948600846406848600846FC
:10029000406840F4806048600846406820F47C1064
:1002A00048600846406840F4E81048600846006826
:1002B00040F08070086000BF4548006800F00070A2
:1002C0000028F9D04248406820F0030040494860C7
:1002D0000846406840F00200486000BF3C48406863
:1002E00000F00C000828F9D10CBD10B5FFF792FF03
:1002F00010BD10B53648006840F001003449086070
:10030000084640683449084031494860084600685A
:10031000324908402E4908600846006820F48020D1
:1003200008600846406820F4FE0048604FF41F0053
:100330008860FFF7DAFF4FF000602949086010BDC0
:1003400010B5002100200022214B5B6803F00C0156
:1003500021B1042906D0082928D107E0214B224CDD
:10036000236027E01F4B204C236023E0184B5B6881
:1003700003F47010164B5B6803F48032022303EB26
:10038000904022B9194B4343174C23600DE0104BAA
:100390005B6803F4003323B1144B4343124C2360D6
:1003A00003E0104B4343104C236003E00D4B0E4C15
:1003B000236000BF00BF064B5B68C3F303130C4C04
:1003C000E15C094B1B68CB40074C236010BD00006B
:1003D00000100240002002400000FFF8FFFFF6FE80
:1003E00008ED00E000127A000000002000093D0046
:1003F0000400002010B50446CC48844208D10121F5
:10040000042000F02DFB0021042000F029FB46E031
:10041000C748844208D10121082000F021FB0021B7
:10042000082000F01DFB3AE0C248844208D10121B7
:10043000102000F015FB0021102000F011FB2EE031
:10044000BD48844208D10121202000F009FB002191
:10045000202000F005FB22E0B848844208D10121A9
:10046000402000F0FDFA0021402000F0F9FA16E0EB
:10047000B348844208D10121802000F0F1FA002124
:10048000802000F0EDFA0AE0AE48844207D1012155
:10049000801500F0E5FA0021A01500F0E1FA10BD8A
:1004A00010B50121084600F0DBFA0021012000F020
:1004B000D7FA10BD2DE9F0410246002500260020A4
:1004C00000230024002791F803C00CF00F0591F8D9
:1004D00003C00CF0100CBCF1000F03D091F802C067
:1004E0004CEA050591F800C0BCF1000F31D014684A
:1004F00000202BE04FF0010C0CFA00F3B1F800C023
:100500000CEA03069E4220D183004FF00F0C0CFA38
:1005100003F7BC4305FA03FC4CEA040491F803C05A
:10052000BCF1280F06D14FF0010C0CFA00FCC2F808
:1005300014C00AE091F803C0BCF1480F05D14FF098
:10054000010C0CFA00FCC2F810C0401C0828D1D3E2
:100550001460B1F800C0BCF1FF0F34DD5468002016
:100560002EE000F1080C4FF0010808FA0CF3B1F886
:1005700000C00CEA03069E4221D183004FF00F0C0D
:100580000CFA03F7BC4305FA03FC4CEA040491F8A7
:1005900003C0BCF1280F05D100F1080C08FA0CF8D3
:1005A000C2F8148091F803C0BCF1480F07D100F1E4
:1005B000080C4FF0010808FA0CF8C2F81080401C33
:1005C0000828CED35460BDE8F0814FF6FF7101805A
:1005D000022181700421C170704702460020936897
:1005E0000B400BB1012000E00020704701468868F5
:1005F00080B2704702460020D3680B400BB1012047
:1006000000E0002070470146C86880B27047016171
:100610007047416170470AB1016100E04161704774
:10062000C16070474FF480320A4382618161826108
:1006300082698269704702460020434B18684FF672
:100640008073184040EA021008433F4B186070471F
:100650003E49C8617047F0B50A46002300240021D6
:10066000002500F00046B6F1004F02D1364EF16988
:1006700001E0354E7168C0F3034583B200F44016C3
:10068000B6F5401F08D121F070612F4E766826F034
:1006900070662D4F7E6012E000F48016B6F5801F64
:1006A00006D1032606FA05F4A14341F0706106E085
:1006B000460D360103FA06F6B14341F0706122B1EE
:1006C000460D360103FA06F6314300F00046B6F156
:1006D000004F02D11C4EF16101E01B4E7160F0BD74
:1006E00030B500228B071C0F0F2303FA04F2164BC0
:1006F00008338C1053F824309343134C08348D1076
:1007000044F8253023468C1053F824308C07240FEE
:1007100000FA04F423430C4C08348D1044F82530BF
:1007200030BD0A49DC310860704700000008014014
:10073000000C01400010014000140140001801406D
:10074000001C014000200140000001400000204248
:10075000DF48006840F00100DD4908600846406855
:10076000DC490840DA49486008460068DA49084030
:10077000D74908600846006820F4802008600846D1
:10078000406820F4FE0048604FF41F008860704706
:10079000CF49096821F48031CD4A116011460968BA
:1007A00021F480211160B0F5803F03D0B0F5802F97
:1007B0000ED106E0C649096841F48031C44A11608F
:1007C00007E0C349096841F4A021C14A116000E073
:1007D00000BF00BF704710B5014600220023002073
:1007E0004A11012A02D1BA4C236806E0022A02D13A
:1007F000B74C236A01E0B64C636A01F01F02012482
:1008000094401C400CB1012000E0002010BD38B520
:10081000002000900024002500BF3120FFF7DBFFFF
:1008200005460098401C00900098B0F5A06F01D0DC
:10083000002DF2D03120FFF7CEFF08B1012400E0F7
:100840000024204638BD01460020A14A106820F04F
:10085000F80040EAC10010607047A0490860704786
:10086000024600209A4B586820F47C1042EA0103AB
:100870001843974B5860704798490866704701467F
:100880000020934A506820F00300084350607047EE
:100890008F48406800F00C007047014600208C4AE9
:1008A000506820F0F0000843506070470146002077
:1008B000874A506820F4E060084350607047014662
:1008C0000020834A506820F4605040EAC100506024
:1008D000704729B17E4A527A02437D4B5A7204E036
:1008E0007B4A527A82437A4B5A7270477B49D8319D
:1008F0000860704701460020754A506820F4404067
:100900000843506070470021714A20321170704ACC
:1009100082F82010012802D004280AD104E0012125
:100920006B4A2032117005E00521694A20321170AE
:1009300000E000BF00BF7047694908607047644924
:10094000096A0143624A1162704765494439086087
:10095000704730B500210022002400235C4D6D68F3
:1009600005F00C0121B1042905D0082923D105E0A7
:100970005C4D056022E05B4D05601FE0544D6D68E5
:1009800005F47012524D6D6805F48034022505EBB4
:1009900092421CB9544D554305600BE04C4D6D68B7
:1009A00005F400351DB1504D5543056002E04D4D35
:1009B0005543056002E04B4D056000BF00BF444D4C
:1009C0006D6805F0F0010909484D6B5C0568DD4074
:1009D00045603F4D6D6805F4E061090A434D6B5C6D
:1009E0004568DD4085603A4D6D6805F46051C90A7F
:1009F0003E4D6B5C4568DD40C560354D6D6805F466
:100A00004041890B3A4D6B5CC568B5FBF3F5056158
:100A100030BD29B12E4A526902432D4B5A6104E080
:100A20002B4A526982432A4B5A61704729B1284A9E
:100A300092690243264B9A6104E0254A92698243F7
:100A4000234B9A61704729B1214AD2690243204B56
:100A5000DA6104E01E4AD26982431D4BDA617047B5
:100A600029B11B4AD2680243194BDA6004E0184AE4
:100A7000D2688243164BDA60704729B1144A126972
:100A80000243134B1A6104E0114A12698243104B6E
:100A90001A61704712494039086070470F49C864AD
:100AA00070470B49C87170470948406A40F0807030
:100AB00007494862704701460020054A92680A408B
:100AC0000AB1012000E00020704701498872704798
:100AD000001002400000FFF8FFFFF6FE0000424257
:100AE0008004424200127A0000093D0014000020F8
:100AF0002400002030B943F2DB028100A1F1C041A3
:100B00000A6005E043F2D2028100A1F1C0410A600F
:100B10006FF07042411C8900A1F1C0410A60810060
:100B2000A1F1C041C1F80421704710280AD1182151
:100B30004FF020421166402151664FF0FC31916622
:100B4000D16610E01821F74A116040214FF0204291
:100B5000C2F884104FF0FC31F24A083211604FF0B5
:100B60002042C2F88C1070471820EE4920310860EE
:100B700000200906C1F8A4004FF0FC30E9492831F3
:100B80000860091D0860091D08607047D0E901125E
:100B90001143C268114302691143426911438269DA
:100BA0001143C2691143026A1143426A1143826AC6
:100BB0001143C26A1143026B114302689200A2F111
:100BC000C0421160816808290BD101688900A1F138
:100BD000C041096841F0400201688900A1F1C041AB
:100BE0000A60416B0968426B526841EA0211426B2C
:100BF000926841EA0221426B928941EA0241426BCA
:100C0000128A41EA0251426B127D41EA0261426B53
:100C1000926911430268521C9200A2F1C042116015
:100C2000C16AB1F5804F1BD1816B0968826B526834
:100C300041EA0211826B926841EA0221826B128AB8
:100C400041EA0251826B127D41EA0261826B926934
:100C5000114302689200A2F1C042C2F8041107E0F9
:100C60006FF0704201688900A1F1C041C1F8042110
:100C7000704730B5002100220023446844F0080486
:100C800085682C43C5682C4305692C43456944EAB3
:100C90004524856944EA4531C4692468C5696D689D
:100CA00044EA0524C5692D8944EA0544C5692D7BBC
:100CB00044EA0562046A2468056A6D6844EA05240A
:100CC000056A2D8944EA0544056A2D7B44EA0563DB
:100CD0000468102C05D14FF020442166A266E3661B
:100CE00008E0904C21604FF02044C4F888208D4CDF
:100CF0000C34236030BD016841F01001426841EAC4
:100D00004221826841EA4231864A20321160C1683C
:100D10000968C268526841EA0221C268128941EA40
:100D20000241C268127B41EA02617E4A28321160A8
:100D3000016909680269526841EA0221026912895F
:100D400041EA02410269127B41EA0261754A2C3292
:100D50001160416909684269526841EA02214269A9
:100D6000128941EA02414269127B41EA02614FF075
:100D70002042C2F8B010704700210160022141609A
:100D800000218160C160016141618161C1610162D5
:100D90004FF480514162490081620021C1620163C8
:100DA0000F21426B1160426B5160FF21426B9160D9
:100DB0000F21426BD160426B1161426B5161002186
:100DC000426B91610F21826B1160826B5160FF2138
:100DD000826B91600F21826BD160826B1161826B9B
:100DE00051610021826B91617047102101600021E7
:100DF00041608160C160016141618161FC21C26922
:100E00001160C2695160C2699160C269D160026AB1
:100E10001160026A5160026A9160026AD160704793
:100E20000021016041608160FC21C2681160C268DC
:100E30005160C2689160C268D16002691160026944
:100E40005160026991600269D16042691160426932
:100E50005160426991604269D160704751B182002E
:100E6000A2F1C042126842F001038200A2F1C04226
:100E7000136009E08200A2F1C04212682A4B1A40B6
:100E80008300A3F1C0431A60704799B1102808D1BC
:100E90004FF02042126E42F004024FF020431A66D7
:100EA0001DE0204A126842F004024FF02043C3F8CC
:100EB000802014E0102809D14FF02042126E1A4B06
:100EC000DB1E1A404FF020431A6608E0154A1268EC
:100ED000154BDB1E1A404FF02043C3F880207047AB
:100EE00048B110492031096841F004014FF0204217
:100EF000C2F8A01009E00B49203109680A4AD21E45
:100F000011404FF02042C2F8A0107047B9B110282C
:100F10000CD14FF02042126E42F040024FF02043BD
:100F20001A661FE0800000A0FEFF0F00724A1268E0
:100F300042F040024FF02043C3F8802012E0102816
:100F400008D14FF02042126E6C4B1A404FF02043F4
:100F50001A6607E0684A1268684B1A404FF020434F
:100F6000C3F88020704701460020102903D14FF0BC
:100F70002042506F02E0604A14321068704710B58A
:100F8000F2B1102807D14FF020435B6E0B434FF0B6
:100F90002044636632E0B0F5807F08D1564B1B1DBC
:100FA0001B680B434FF02044C4F8843026E0524BBA
:100FB00024331B680B434FF02044C4F8A4301DE0D9
:100FC000102807D14FF020435B6E8B434FF0204435
:100FD000636613E0B0F5807F08D1474B1B1D1B688B
:100FE0008B434FF02044C4F8843007E0424B243355
:100FF0001B688B434FF02044C4F8A43010BD10B5DB
:10100000024600200023102A03D14FF02044636ED3
:1010100009E0B2F5807F03D1374C241D236802E03C
:10102000354C2434236803EA01040CB1012000E0AC
:10103000002010BD102807D14FF02042526E8A4385
:101040004FF020435A6613E0B0F5807F08D12A4A5A
:10105000121D12688A434FF02043C3F8842007E032
:10106000254A243212688A434FF02043C3F8A42053
:10107000704770B502460020002300240025102A86
:1010800003D14FF02046736E09E0B2F5807F03D1A3
:10109000194E361D336802E0174E2436336803EAD2
:1010A000010403EAD10514B10DB1012000E00020D4
:1010B00070BD102808D14FF02042526E22EAD102B2
:1010C0004FF020435A6615E0B0F5807F09D10A4AF7
:1010D000121D126822EAD1024FF02043C3F8842087
:1010E00008E0054A2432126822EAD1024FF0204378
:1010F000C3F8A42070470000800000A0BFFF0F00CD
:101100000948804709480047FEE7FEE7FEE7FEE79B
:10111000FEE7FEE7FEE7FEE7FEE7FEE704480549D7
:10112000054A064B70470000F30200083101000831
:10113000D0F00020D0F60020D0F20020D0F2002025
:101140002DE9F04F85B005460C4617460020049067
:101150000090E8B20390E0B20290E0B20190E8B2F1
:10116000009007264FF0000840E04FF0000930E003
:101170004FF0000A22E04FF0000B16E023462A460B
:101180002146284600F043FBB12008FB00F0FA4955
:10119000084410F8090010B1002000F04BFA601C60
:1011A00084B20BF1010000F0FF0BB345E6DB019CBC
:1011B000681C85B20AF1010000F0FF0AB245DADBD3
:1011C000009DA01984B2E0B2019009F1010000F085
:1011D000FF09B945CCDBA81985B2E8B20090029CA2
:1011E000E0B2019008F1010000F0FF08B845BCDB57
:1011F00005B0BDE8F08F70B504460D4616462B4687
:1012000022462946204600F002FB304600F012FA42
:1012100070BD2DE9FF4F85B081468A4600200390BE
:1012200083460798A0EB09050898A0EB0A06CDF8BD
:101230000490CDF808A0002D01DD012705E00DB9CF
:10124000002702E04FF0FF376D42002E02DD4FF025
:10125000010806E016B94FF0000802E04FF0FF3831
:101260007642B54201DD2C4600E034460020049071
:101270001EE0129ADDE90101FFF7BDFF0398284443
:101280000390B3440398A04206DD0398001B03902B
:101290000198384480B20190A34505DDABEB040B07
:1012A0000298404480B202900498401C80B204909E
:1012B000611C04988842DCDD09B0BDE8F08F2DE99F
:1012C000F84305460E4617469846089C33463A466C
:1012D000314628460094FFF79CFF43462A46314694
:1012E00028460094FFF795FF43463A464146284674
:1012F0000094FFF78EFF43463A4631463846009445
:10130000FFF787FFBDE8F88370B504460D46164623
:10131000324629462046FFF76EFF70BD2DE9F05F8B
:1013200007460D4616469846AB4600243BE0102C77
:1013300005DA924901EB461010F8049009E001200B
:1013400000EB46008D4901EB0011A4F1100011F8EB
:1013500000904FF0000A20E009F0800028B14246DA
:1013600029463846FFF7D0FF05E040F2FF722946D4
:101370003846FFF7C9FF4FEA49604FEA1069681C19
:1013800085B2A5EB0B00102803D15D46781C87B20F
:1013900006E00AF1010000F0FF0ABAF1080FDBDBFA
:1013A00000BF601CC4B2202CC1DBBDE8F09F2DE95A
:1013B000F04704460D4616461F46DDF82080B4422D
:1013C00001DCBD4201DDBDE8F0873B4632462946DF
:1013D000204600F01CFA301B401C84B2781B401CD5
:1013E00085B20BE0A94602E0404600F023F95FEA2F
:1013F0000900A9F101011FFA81F9F5D12000A4F13A
:1014000001018CB2EED100BFDDE72DE9F0410446C9
:101410000D46174605F1010C1FFA8CF304F1010C7F
:101420001FFA8CF2A5F1010C1FFA8CF1A4F1010C4A
:101430001FFA8CF000F0EBF9002604E0384600F0CB
:10144000F9F8701CC6B2092EF8DB211D8AB2211FE3
:1014500088B22B46294600F0DAF9002604E0384627
:1014600000F0E8F8701CC6B2092EF8DB281D83B224
:10147000281F81B22246204600F0C9F9002604E068
:10148000384600F0D7F8701CC6B2092EF8DBBDE86C
:10149000F0812DE9F05F04460E46154698463AE085
:1014A0002878203800F0FF0A06F10F0083B2E01D13
:1014B00082B23146204600F0AAF900271FE03048EA
:1014C00000EB0A1010F807B04FF0000912E00BF023
:1014D0008000802803D1404600F0ACF802E00A9872
:1014E00000F0A8F84FF6FF7000EA4B0B09F101007D
:1014F00000F0FF09B9F1080FE9DB781CC7B2102F23
:10150000DDDB6D1C04F1080084B2E92C03DD00244E
:1015100006F1100086B228780028C1D1BDE8F09FFE
:101520002DE9F0478046894615461E4600270024CF
:10153000A24609EB0600401E83B208EB0500401EE0
:1015400082B24946404600F062F905FB06F04FEAD8
:10155000400A00BF0B49601C0F5C4FF6FF7000EAA9
:1015600007270846005D0743384600F063F8A41CCF
:101570005445EFDBBDE8F087B0210020823F000832
:1015800082390008F248000808B501214FF4B07014
:10159000FFF74CFA03208DF8020041F20100ADF88C
:1015A000000018208DF803006946DF48FEF782FF2F
:1015B0004FF63370ADF800006946DC48FEF77AFF5D
:1015C0004FF68070ADF800006946D948FEF772FF0B
:1015D00008BD00B597B002200190002002900520C0
:1015E00003900020069004900120059000070790CA
:1015F0000620089000200A9010200B900002119005
:10160000800013900020099001A8159016900121E8
:101610000802FFF7FEF908A8FFF7B8FA0121062033
:10162000FFF71CFC17B000BD0112C24A1180C1B205
:10163000118070470112BF4A921C1180C1B2118003
:10164000704710B5FFF7A0FFFFF7C3FF4FF4FA7420
:1016500001E0601E84B2002CFBDC0120FFF7E4FFF8
:101660000020FFF7E7FF0320FFF7DEFF41F238001D
:10167000FFF7E0FF0820FFF7D7FF40F60800FFF76D
:10168000D9FF9020FFF7D0FF4FF40040FFF7D2FFC3
:101690004FF48060FFF7C8FF4FF4C440FFF7CAFF64
:1016A00040F20140FFF7C0FF0120FFF7C3FFFF201A
:1016B000FFF7BAFF0120FFF7BDFF4FF48170FFF77E
:1016C000B3FF4FF4D870FFF7B5FF4FF4E260FFF7B8
:1016D000ABFF1620FFF7AEFF40F21270FFF7A4FF3A
:1016E0000F20FFF7A7FF40F25270FFF79DFF2F205A
:1016F000FFF7A0FF40F22470FFF796FF1A20FFF7D4
:1017000099FF40F25470FFF78FFF1820FFF792FF08
:101710004FF4FA7401E0601E84B2002CFBDC4FF43D
:101720006070FFF781FF0020FFF784FF40F28130F7
:10173000FFF77AFF45F61070FFF77CFF40F282302A
:10174000FFF772FF40F60230FFF774FF40F283307C
:10175000FFF76AFF40F21460FFF76CFF4FF461700F
:10176000FFF762FF40F21110FFF764FF40F285308F
:10177000FFF75AFF0020FFF75DFF40F28630FFF7CA
:1017800053FF4AF60B10FFF755FF40F28730FFF783
:101790004BFF40F20660FFF74DFF4FF46270FFF71A
:1017A00043FF40F21260FFF745FF40F28930FFF738
:1017B0003BFF40F21110FFF73DFF40F20270FFF7D0
:1017C00033FF3B20FFF736FFFF20FFF72DFF002000
:1017D000FFF730FF0720FFF727FF4FF48070FFF778
:1017E00029FF4FF4FA7401E0601E84B2002CFBDC88
:1017F0004FF40070FFF718FF0020FFF71BFF40F2C7
:101800000120FFF711FF0020FFF714FF10BD70B596
:1018100006460C46154640F21220FFF705FF3046FB
:10182000FFF708FF40F21320FFF7FEFE2846FFF700
:1018300001FF4FF40470FFF7F7FE2046FFF7FAFEB2
:1018400040F21120FFF7F0FE1846FFF7F3FE40F2DA
:101850000120FFF7E9FE3046FFF7ECFE4FF4007081
:10186000FFF7E2FE2046FFF7E5FE40F20220FFF719
:10187000DBFE70BD70B50646EF2340F28F120021EB
:101880000846FFF7C4FF00240AE0002504E03046C4
:10189000FFF7D0FE681C85B2F02DF8DB601C84B227
:1018A000B4F5C87FF1DB70BD10B504460B464FF4AC
:1018B0000070FFF7B9FE2046FFF7BCFE40F20120A2
:1018C000FFF7B2FE1846FFF7B5FE10BD2DE9F04157
:1018D00004460D4600270026B046F02C02DAB5F586
:1018E000C87F02DB0020BDE8F08129462046FFF7D3
:1018F000DBFF40F20220FFF797FE0E48801C0088B5
:1019000000B100270B48801C0788B0F80080FEB2A9
:101910004FF6FF7000EA0626F812C002B11240EA44
:10192000411040EAE820DEE70020014000140140B9
:1019300000180140FE07006C08B5FEF7DAFC012133
:101940001020FFF773F84FF6FF70ADF8000010207D
:101950008DF8030003208DF8020069462C48FEF73D
:10196000A9FDFF212A48FEF75BFE08BD10B5012145
:101970002748FEF74CFE274801F065FE0121244868
:10198000FEF747FE234801F05EFE10BD10B50024AF
:101990000BE00120A040C04381B21D48FEF740FE8D
:1019A0001D4801F050FE601CC4B2082CF1DB00247D
:1019B0000BE080202041C04381B21548FEF730FE85
:1019C000154801F040FE601CC4B2082CF1DB002475
:1019D0000BE01120A040C04381B20D48FEF720FE6D
:1019E0000D4801F030FE601CC4B2042CF1DB002471
:1019F0000BE088202041C04381B20548FEF710FE6D
:101A0000054801F020FE601CC4B2042CF1DB10BDBF
:101A100000100140808D5B0080841E0070B503467D
:101A2000FB4C246834B1012C02D0022C06D103E017
:101A3000002205E0082203E0182201E0102200BF86
:101A400000BF1A44910200200CE0C0F10E050124F1
:101A5000AC400C402CB1C0F1040540F23754AC400E
:101A60006140401C0528F0DB01EB822145F2124465
:101A70006140002009E0012484400C400CB1302575
:101A800000E02025E34C2554401C0528F3DD01F03F
:101A900040040CB1302500E02025DF4C84F88F5540
:101AA00001F080040CB1302500E02025DA4C84F8E8
:101AB000905501F480740CB1302500E02025D64CFF
:101AC00084F8DF5409200EE0012484400C400CB15E
:101AD000302500E02025C0F10E04B1267443CE4E1F
:101AE00034442572401C0E28EEDD002010E0012455
:101AF00084400C400CB1302500E02025C74C246800
:101B0000641E241AB1267443C34E34442572401C0B
:101B10000728ECDD3026C14C2468083CBD4D2E550D
:101B200008200DE0012484400C400CB1302500E079
:101B30002025BA4C24680F3C2618B64CA555401CED
:101B40000E28EFDD70BDF0B502460020C0E0002198
:101B5000B8E0B1234B43B04C23441B5C03F020039B
:101B6000002B75D1072A78D2DFE802F004101C2779
:101B700033465B00431803EBD3746410A3EB4404B7
:101B80000CB9012400E0002425467FE0034600EB69
:101B9000D3746410A0EB44040CB9012400E00024C9
:101BA000254673E0032391FBF3F403FB14130BB9F5
:101BB000012300E000231D4668E04318032493FB43
:101BC000F4F604FB16330BB9012300E000231D4695
:101BD0005CE0032691FBF6F6044600EBD47706EBB7
:101BE000670303EBD3767610A3EB46060EB9012606
:101BF00000E00026354649E000FB01F4032694FB93
:101C0000F6F706FB174600FB01F303EBD3746410F1
:101C1000A3EB440434440CB9012400E0002425461D
:101C200034E000FB01F6032796FBF7FC07FB1C677B
:101C300000FB01F404EBD4767610A4EB4606BB1946
:101C400003EBD3767610A3EB46061EB9012602E01D
:101C500037E002E00026354618E000FB01F60327D6
:101C600096FBF7FC07FB1C66441804EBD4777F1047
:101C7000A4EB4707F31903EBD3767610A3EB4606E4
:101C80000EB9012600E00026354600BF00BFB12393
:101C90004B43614C23441B5C03F0FE03B1244C43D3
:101CA0005D4E3444245C04F00204012C01DD012467
:101CB00000E000246C402343B1244C43564E34448E
:101CC0002354491C554B1B689942FFF642AF401CF8
:101CD000524B1B689842FFF63AAFF0BDF0B50020BA
:101CE000002231E0002129E001244B1C1BE0B1253A
:101CF0005543494E35446D5C05F011050DB901267B
:101D000000E00026B1255543434F3D44ED5C05F00E
:101D100011050DB9012500E00025AE4201D1641C7A
:101D200000E004E05B1C3D4D2D68AB42DFDB00BFF3
:101D3000052C01DBA51E2844591E491C374D2D6872
:101D40002D1F8D42D0DC521C344D2D68AA42C9DBB8
:101D5000002231E0002129E001244B1C1BE0B125C9
:101D60004D432D4E3544AD5C05F011050DB90126EE
:101D700000E00026B1255D43274F3D44AD5C05F0F2
:101D800011050DB9012500E00025AE4201D1641C0A
:101D900000E004E05B1C214D2D68AB42DFDB00BF9F
:101DA000052C01DBA51E2844591E491C1B4D2D681E
:101DB0002D1F8D42D0DC521C184D2D68AA42C9DB64
:101DC00000225EE0002156E0B1255543124E354415
:101DD0006D5C05F011050DB9012600E00026551CCB
:101DE000B1277D430C4F3D446D5C05F011050DB9E5
:101DF000012500E00025AE423CD1B1255543064EF9
:101E000035446D5C05F0110555B9012609E0000067
:101E10002800002038270020B021002034000020B6
:101E20000026B1255543F94F2F444D1C7D5D05F02B
:101E300011050DB9012500E00025AE421AD1B125EA
:101E40005543F24E35446D5C05F011050DB9012680
:101E500000E00026551CB1277D43EC4F2F444D1C5C
:101E60007D5D05F011050DB9012500E00025AE42AC
:101E700000D1C01C491CE64D2D686D1E8D42A3DCAF
:101E8000521CE34D2D686D1E95429BDC0022B4E090
:101E90000021ABE049B1B1255543DC4E2E444D1E27
:101EA000755D05F01105002D6CD1B1255543D74E58
:101EB00035446D5C05F01105002D63D0B125554307
:101EC0002E444D1C755D05F01105002D5AD1B1252C
:101ED0005543CE4E2E448D1C755D05F01105002D29
:101EE00050D0B1255543C94E2E44CD1C755D05F02B
:101EF0001105002D79D0B1255543C44E2E440D1D3A
:101F0000755D05F01105EDB3B1255543BF4E2E4467
:101F10004D1D755D05F01105A5BBB1255543BB4EA3
:101F20002E448D1D755D05F011055DB3B84D2D680E
:101F3000ED1F8D4208D0B1255543B44E2E44CD1D22
:101F4000755D05F01105EDB9022908DBB125554392
:101F5000AE4E2E448D1E755D05F01105BDB90329E9
:101F600008DBB1255543A94E2E44CD1E755D05F005
:101F7000110565B9042937DBB1255543A34E2E441D
:101F80000D1F00E031E0755D05F0110565B3A04D52
:101F90002D68083D8D4209DDB12555439B4E2E44E9
:101FA00001F10805755D05F01105F5B9984D2D682D
:101FB000093D8D4209DDB1255543944E2E4401F172
:101FC0000905755D05F011057DB9914D2D680A3D36
:101FD0008D4209DDB12555438C4E2E4401F10A0591
:101FE000755D05F0110505B92830491C884D2D682F
:101FF000AD1F8D423FF74EAF521C854D2D68AA4252
:10200000FFF646AF0022B3E00021AAE049B14D1E21
:10201000B12675437D4E3544AD5C05F01105002DAC
:102020005AD1B1254D43794E3544AD5C05F01105CB
:10203000002D51D04D1CB1267543744E3544AD5C16
:1020400005F01105002D47D18D1CB12675436F4E4B
:102050003544AD5C05F01105F5B3CD1CB1267543D3
:102060006A4E3544AD5C05F01105ADB30D1DB126CA
:102070007543664E3544AD5C05F0110565B34D1DE5
:10208000B1267543614E3544AD5C05F011051DBBAD
:102090008D1DB12675435D4E3544AD5C05F01105CF
:1020A000D5B15B4D2D68ED1F8D4208D0CD1DB126F9
:1020B0007543564E3544AD5C05F0110565B90229EE
:1020C00008DB8D1EB1267543504E3544AD5C05F0DE
:1020D0001105BDB9032900E042E008DBCD1EB126A1
:1020E00075434A4E3544AD5C05F0110555B90429D8
:1020F00035DB0D1FB1267543444E3544AD5C05F00C
:10210000110565B3424D2D68083D8D4209DD01F191
:102110000805B12675433D4E3544AD5C05F011050B
:10212000F5B93B4D2D68093D8D4209DD01F10905E9
:10213000B1267543354E3544AD5C05F011057DB9CA
:10214000334D2D680A3D8D4209DD01F10A05B126A6
:1021500075432E4E3544AD5C05F0110505B92830A8
:10216000491C2B4D2D68AD1F8D423FF74FAF521CC0
:10217000274D2D68AA42FFF647AF0024002210E049
:10218000002109E0B1255543204E35446D5C05F032
:10219000110505B9641C491C1D4D2D68A942F1DBD0
:1021A000521C1B4D2D68AA42EADB64266643184F79
:1021B0003F687F4396FBF7F6C6F13205002D01DB41
:1021C0002E4600E06E42052796FBF7F606EB8606E4
:1021D00000EB4600F0BDF0B50D4E30683668711E5C
:1021E0000122012500233DE0002438E000BF104417
:1021F0005242002A17DA2944002903DB044E3668CC
:10220000B14210D1002905DA002606E0B0210020F5
:1022100034000020F94E3668761E31466D42801E2D
:10222000062800D1401EB1264643F54F3E44765C59
:1022300006F02006002EDAD1F24EF65CC4F1070C4F
:10224000012707FA0CF73E400EB1022700E00027F5
:10225000B1264643DFF8A8C366447754641C082CB3
:10226000C4DB5B1CE84E3668B342BDDBF0BD70B525
:102270000246B1245443E24D2C44645C04F0200433
:1022800004B170BD921E891E002017E0002312E0E9
:10229000DE4C245CC3F104060125B5402C400CB192
:1022A000302500E02025D418B1267443D44E3444A0
:1022B0000E18A5555B1C052BEADB401C0528E5DB49
:1022C00000BFDEE730B5D24B1B68062B00DC30BD0B
:1022D000CF4B1B681A0300200CE0C0F1110401234E
:1022E000A34013402BB1C0F1050441F62573A34070
:1022F0005A40401C0628F0DBC54B1B6802EB03323A
:10230000002021E000211CE000EB40035C180123C9
:10231000A34013400BB1302400E02024B1234343F9
:10232000B74D1D44B54B1B680B3B0B44EC54B34BF2
:102330001B680B3B0B44B1256B43B14D2B441C5424
:10234000491C0329E0DB401C0628DBDB00BFBEE79D
:1023500070B502460B46002017E0002112E0AD4C9C
:10236000245CC1F106060125B5402C400CB1302596
:1023700000E020255418B1267443A14E34441E18A1
:10238000A555491C0729EADB401C0728E5DB70BD81
:1023900030B500210846FFF7DBFF98490968C81FE0
:1023A0000021FFF7D5FF95480068C11F0020FFF707
:1023B000CFFF002427E0202197480155B12060433A
:1023C0008F4A1044C1718D48006808382044B122FA
:1023D00050438B4A1044C171884800680838B122C4
:1023E0005043874A10440155844800680838021950
:1023F00089488154B1206043814A02447F48006883
:1024000008381154641C082CD5DB002409E0202175
:102410008148B1300155B1206043794A10440172BE
:10242000641C092CF3DB002411E0202173480068B0
:10243000083802197848B13081547048006808386B
:102440002044B12250436E4A10440172641C082C8F
:10245000EBDBFFF737FF002447E06D49096801EB2C
:10246000810202EB41116D4A02EB81011C3151F8EE
:1024700024000621FFF7FBFE6548006800EB8002A0
:1024800002EB4010654A02EB80001C3050F824102B
:102490000620FFF7ECFE00251AE05D4A126802EB09
:1024A000820303EB42125D4B03EB82021C3252F8B3
:1024B0002510574A126802EB820303EB4212574B76
:1024C00003EB82021C3252F82400FFF7D0FE6D1C91
:1024D0004F48006800EB800101EB40104F4901EBD1
:1024E00080008069A842D8DC641C4948006800EB81
:1024F000800101EB4010494901EB80008069A04256
:10250000ABDC08241CE0204604EBD0714910A4EB9E
:10251000410109B9302200E02022B1216143384B4A
:1025200019448A71204604EBD0714910A4EB410193
:1025300009B9302200E020223749B1390A55641C1C
:102540002E4800680938A042DDDA30BD2DE9F0419F
:1025500047F661212A4801F031F9FFF719FFFFF72B
:102560003AFE2F480068401C00BB00202C49086040
:1025700008460068FFF7E7FA29480068FFF74EFAB7
:10258000FFF7ACFB074601240EE02046FFF7DBFA1D
:102590002046FFF743FAFFF7A1FB0646BE4202DAE8
:1025A00037461F480460641C072CEEDD1C48006899
:1025B000FFF7C9FA1A480068FFF730FA002417E05D
:1025C000002510E0B12060430D490844405D00F053
:1025D000110008B1012100E00021B1206043084A48
:1025E000104441556D1C054800688542EADB641CB7
:1025F000024800688442E3DBBDE8F081340000203B
:10260000B02100205CE1002040000020EF1F0020EE
:102610002C000020E81F0020872600204400002016
:10262000300000202DE9F0410346002436E01F78F9
:102630004FB31F78DFF800C41CF80750002015E0E6
:10264000FE4F57F822703F5C2F444FF0FF0C97FB72
:10265000FCF80CFB1877FEB2471CDF5DDFF8E0C327
:102660001CF806C087EA0C071F54401C9042E7DBA9
:10267000104603E0471CDF5D1F54401C8F187F1E6F
:102680008742F7DC09E0002003E0471CDF5D1F54B0
:10269000401C8F187F1E8742F7DC641C8C42C6DB0F
:1026A000BDE8F081F0B503460D46581C20B19818DE
:1026B00045F66044A04202DD4FF0FF30F0BD00213E
:1026C00024E0501A401E012404FA00F02840E0B132
:1026D0005818C61700EB5676F610DA4FBE5D5C1838
:1026E000E71704EB5777FF10A4EBC707C7F1070CF8
:1026F000012707FA0CF73E435818C71700EB577726
:10270000FF10DFF840C30CF80760491C9142D8DB8A
:102710009818D3E7014648F24010814208DB49F699
:10272000FC70814204DCA1F50140403881B202E036
:1027300001F57B5081B2C8B20A1202EB420200EBF3
:10274000821080B270470146302905DB392903DC4D
:10275000A1F13000C0B27047412905DB5A2903DCE2
:10276000A1F13700C0B2F6E7202901D12420F2E719
:10277000242901D12520EEE7252901D12620EAE7E9
:102780002A2901D12720E6E72B2901D12820E2E7D9
:102790002D2901D12920DEE72E2901D12A20DAE7CF
:1027A0002F2901D12B20D6E72C20D4E7F0B5044601
:1027B000002324B1012C1DD0022C3AD131E003209A
:1027C00091FBF0F5A04850F82200001D0A2606FBF8
:1027D0000503032091FBF0F500FB1510012802D042
:1027E000022804D101E01B1D02E0DB1D00E000BF58
:1027F00000BF2AE0084601EBD0767710934E56F8DA
:102800002260361D4FF00B0C0CFB07660D4601EBEA
:10281000D5777F10A1EB47074FF0060C0CFB076341
:1028200013E08B4850F82200001D082505FB01032A
:102830000BE0084601EBD0756E10864D55F822501E
:102840002D1D0D2707FB065300BF00BF1846F0BD26
:102850000146302903DB392901DC01207047412979
:1028600003DB5A2901DC0120F8E720290FD02429B5
:102870000DD025290BD02A2909D02B2907D02D29A5
:1028800005D02E2903D02F2901D03A2901D10120CA
:10289000E4E70020E2E70146302903DB392901DCC7
:1028A000012070470020FCE70246812A01DB9F2AB5
:1028B00003DDE02A0FDBEB2A0DDC40290BDB9F2A2E
:1028C00001D1FC2903DCEB2A03D1BF2901DD002063
:1028D00070470120FCE70020FAE72DE9F74F86B0AA
:1028E00007469246002400200190804642F630615F
:1028F000594800F063FF00200546584908604AE047
:102900000798401EA84208DD6A1CB95C785DFFF795
:10291000CBFF10B1032005900FE0785DFFF7BBFF00
:1029200010B10020059008E0785DFFF791FF10B12D
:102930000120059001E00220059015B9484905984D
:102940000870474845490968415C0598814207D0AD
:10295000424905980968491C404A1160404A505450
:102960003D483E49096850F82100401C3A493B4A1D
:10297000126841F82200059803280BD10846374910
:10298000096850F82100401C3349344A126841F864
:1029900022006D1C6D1C07988542B1DB2F48006832
:1029A000401C2E49086093E12D48005D20B92C4958
:1029B000601C085C012808D02948005D01287DD1F1
:1029C0002749601C085C0028F9D1234A52F82410DA
:1029D000234A105D5246FFF7E9FE83461E4B621CF8
:1029E00053F822101E4B985C5246FFF7DFFE584406
:1029F0000490194850F824200346601C53F8200026
:102A0000111852460120FFF7D1FE8146049848452F
:102A100054DD012C42DB601E1149085C02283DD1C7
:102A2000601E0D4A52F8200052F8242081185246A8
:102A30000220FFF7BBFE15E0F8180020A41E0020BE
:102A4000F8170020119C0020B81F0020C41F002090
:102A5000D01F0020DC1F00202CB300203C000020F1
:102A60009DA700208346FE4B621C53F82210FD4BAD
:102A7000985C5246FFF79AFE58440390601EF84A4D
:102A800052F8201052460220FFF790FE00EB090199
:102A90000398814204DA0020039001E000200390B3
:102AA000F1480068801EA0422EDDEE49A01C085CA3
:102AB000022829D1EA4A52F8241000E006E1E94A46
:102AC000105D5246FFF772FE8346E54A601C52F8DD
:102AD0002020E34BA01C53F820001118524602207E
:102AE000FFF764FE58440290DD4AA01C52F8201003
:102AF00052460220FFF75AFE00EB0901029881427C
:102B000004DA0020029001E000200290039858B1FE
:102B1000029848B1DDE90210884202DA4FF0FF3036
:102B200000E0012001900AE0039810B14FF0FF305F
:102B300004E0029808B1012000E000200190019813
:102B400088B30198401CE8B9601EC54951F82000BF
:102B500051F824100144601EC14A42F82010254655
:102B60000AE0C049681C085C4855BD49681C51F81A
:102B7000200041F825006D1CBB480068401EA8429B
:102B8000EFDC21E00221B74A601C1154B44951F82E
:102B90002010B34AA01C52F820000144601C42F8E7
:102BA0002010A51C0BE015E0AE49681C085C4855D8
:102BB000AB49681C51F8200041F825006D1CAA485B
:102BC0000068401EA842EFDCA7480068401EA649E6
:102BD00008607AE0A4480068801EA04227DDA14971
:102BE000A01C085C012822D19D49601C51F82010CE
:102BF0009B4AA01C52F820000144601C42F820109F
:102C0000A51C0AE09749681C085C48559449681C53
:102C100051F8200041F825006D1C93480068401EC3
:102C2000A842EFDC90480068401E8F4908600120F0
:102C30008C4908558A4850F824100246601C52F806
:102C400020000844114641F82400651C0AE085492B
:102C5000681C085C48558249681C51F8200041F8FE
:102C600025006D1C80480068401EA842EFDC7E48AD
:102C70000068401E7C490860012C26DB601E7949F3
:102C8000085C012821D1601E754951F8200051F8D7
:102C900024100144601E724A42F8201025460AE0C2
:102CA0007049681C085C48556D49681C51F8200043
:102CB00041F825006D1C6C480068401EA842EFDCFE
:102CC00069480068401E6849086001E0641C00BF54
:102CD00065480068401EA0423FF766AE0024CDE084
:102CE0005F4A52F824105F4A105D5246FFF75EFDBE
:102CF00083465B4B621C53F822105A4B985C524639
:102D0000FFF754FD58440490554850F824200346DA
:102D1000601C53F82000111852460220FFF746FDB0
:102D20008146012C0ADB601E4E49085C022805D151
:102D30004E4850F82A00001DA9EB00094A480068D7
:102D4000801EA0420ADD4749A01C085C022805D16C
:102D5000464850F82A00001DA9EB00090498484590
:102D60007CDD012C27DB601E3E49085C022822D155
:102D7000601E3B4951F8200051F824100144601EA8
:102D8000374A42F8201025460AE03649681C085C9C
:102D900048553349681C51F8200041F825006D1C46
:102DA00031480068401EA842EFDC2F480068401EF2
:102DB0002D490860641E2C480068801EA04227DD53
:102DC0002849A01C085C022822D12549601C51F822
:102DD0002010234AA01C52F820000144601C42F835
:102DE0002010A51C0AE01F49681C085C48551C49B6
:102DF000681C51F8200041F825006D1C1A48006835
:102E0000401EA842EFDC18480068401E16490860C2
:102E1000022014490855124850F824100246601C3C
:102E200052F820000844114641F82400651C0AE0CD
:102E30000C49681C085C48550949681C51F8200079
:102E400041F825006D1C08480068401EA842EFDCD0
:102E500005480068401E0449086009E00CE00000D5
:102E60002CB300209DA700203C000020D01F002094
:102E7000012C00DB641E01E0641C00BFFD480068FB
:102E8000401EA0423FF72CAF0020FB49086040F6EF
:102E90008C31FA4800F070FC00253EE1F848405DB6
:102EA000E0BB04220121F4480068FFF7FBFBF24974
:102EB0000860F44850F82A20F34830F8250081B221
:102EC000ED480068FFF7EEFBEB490860002659E08B
:102ED000ED4850F82500801EB04220DD08EB0600CA
:102EE000385C30386421484308EB0601491C795CA2
:102EF000303901EB810100EB410108EB0600801C39
:102F0000385C3038084480B200900A22DA480099D0
:102F10000068FFF7C7FBD849086032E03CE0DA48B8
:102F200050F82500801EB04217D108EB0600401C67
:102F3000385C303808EB0601795C303901EB8101EF
:102F400000EB410080B200900722CB480099006856
:102F5000FFF7A8FBC849086013E0CB4850F82500EC
:102F6000401EB0420DD108EB0600385C303880B20C
:102F700000900422C04800990068FFF793FBBE4907
:102F80000860F61CC04850F82500B042A0DCBE48DE
:102F900050F825008044BFE0B948405D01284FD17A
:102FA00004220221B4480068FFF77CFBB2490860A4
:102FB000B64850F82A20B44830F8250081B2AE480F
:102FC0000068FFF76FFBAC49086000262EE0AE48B2
:102FD00050F82500401EB04219DD08EB0601785C70
:102FE000FFF7B1FBC0EB001000EB400208EB06015D
:102FF000491C785CFFF7A7FB104400900B229E4809
:1030000000990068FFF74EFB9B4908600DE008EB54
:103010000601785CFFF797FB00900622964800991E
:103020000068FFF73FFB94490860B61C964850F8CB
:103030002500B042CBDC944850F8250080446BE07A
:103040008F48405D02282BD1042211468A4800682F
:10305000FFF728FB884908608D4850F82A208A48E5
:1030600030F8250081B284480068FFF71BFB8249D5
:10307000086000260AE008EB0600395C08227E485A
:103080000068FFF70FFB7C490860761C7E4850F80B
:103090002500B042EFDC7C4850F8250080443BE03E
:1030A0000422082174480068FFF7FCFA724908609E
:1030B000754850F825B00BEBDB70C0F34F01754835
:1030C00050F82A206C480068FFF7ECFA6A4908605B
:1030D000002615E008EB4601491C795C08EB460226
:1030E000BA5C01EB022188B2FFF714FB00900D22BD
:1030F000614800990068FFF7D5FA5F490860761CBF
:10310000614951F8250000EBD071B6EB610FE1DBAE
:103110005D4850F8250080446D1C56480068854283
:1031200005DA55480068401C00287FF4B7AE5248C5
:103130000068401C18B1012009B0BDE8F08F0020E4
:10314000FAE72DE9F04706460F4690461B2E01DBB5
:10315000022004E00A2E01DB012000E0002081466D
:103160004D4663E02A4641463846FFF7B6FB002845
:103170005BD0EDB9012418E03F490968C81D04EB94
:10318000840101EB4411444A02EB81010831434AB6
:10319000126851F82210C21700EB5272B1EBE20F25
:1031A00002DB2046BDE8F087641C092CE4DD3CE02E
:1031B000012D1CD10A2417E02F490968C81D04EB12
:1031C000840101EB4411344A02EB81010831334A96
:1031D000126851F82210C21700EB5272B1EBE20FE5
:1031E00001DB2046DEE7641C1A2CE5DD1DE0022D24
:1031F0001BD11B2417E020490968C81D04EB84017A
:1032000001EB4411244A02EB81010831234A126880
:1032100051F82210C21700EB5272B1EBE20F01DB42
:103220002046BFE7641C282CE5DD6D1C022D99DDCE
:103230000020B7E72DE9FF4F89B007460026174861
:10324000076017490C98086017980890089818B9F3
:1032500000200DB0BDE8F08F089A16990A98FFF784
:1032600070FF83460F4981F800B0BBF1000F1BD1FE
:103270000020EEE73C00002038000020119C0020D8
:103280009DA70020B81F00202CB30020C41F0020E1
:10329000D01F0020DC1F0020440000202800002058
:1032A00030000020F41F00200A9818B9AE48C0F87A
:1032B00000B00EE00A98834503DCAB490A98086029
:1032C00007E00B9818B1A848C0F800B001E0002052
:1032D000BFE7A548006800EB800101EB4010A3495F
:1032E00001EB8000083050F82790A1480068C0EB3F
:1032F000C900042801DD042003E09D480068C0EBFC
:10330000C90007900798002807DD00219848079A10
:103310000068FFF7C7F996490860EC2006909449C9
:103320000968C81DC11700EB5171CC100AE0914922
:10333000069808550698EC2801D1112000E0EC20F1
:103340000690641C4C45F2DB8748006800EB800166
:1033500001EB4010854901EB800040688649086018
:1033600008460168854800F029FA4FF000087E48B9
:10337000006800EB800101EB40107C4901EB80000C
:10338000343007EB470150F821000590764800687B
:1033900000EB800101EB4010744901EB80006430C8
:1033A00007EB470150F821100491DDE904100844AF
:1033B000039000266C48006800EB800101EB401090
:1033C0006A4901EB8000343007EB470100EB8100D4
:1033D000D0F808A06448006800EB800101EB4010C1
:1033E000624901EB8000643007EB470100EB81008C
:1033F00080680090002410E000250AE0404608F1B3
:1034000001085C49095C039800FB05605B4A1154A4
:103410006D1C5545F2DB761C641C05988442EBDB81
:1034200000241EE0002517E055450ADA404608F161
:1034300001085049095C039800FB05604F4A11548C
:1034400009E0404608F101084A49095C039800FB7D
:103450000A404A4A11546D1C00988542E4DB761CF0
:10346000641C04988442DDDB3F48006800EB800167
:1034700001EB40103D4901EB8000343007EB470180
:1034800000EB81004068A0EB0A000290364800681B
:1034900000EB800101EB4010344901EB8000643007
:1034A00007EB470100EB810041680098081A019082
:1034B0004FF000080026002420E09921304800F059
:1034C0005BF92C4800EB080152462D4800F0E0F86B
:1034D00051462B48029AFFF7A5F8002508E0284836
:1034E000415D039800FB05903044244A11546D1C43
:1034F00002988542F3DBD044761C641C0598844214
:10350000DBDB002421E099211D4800F035F9194842
:1035100000EB08011A48009A00F0BAF81848DDE9F3
:103520000012FFF77FF8002508E01548415D039879
:1035300000FB05903044114A11546D1C01988542DE
:10354000F3DB00988044761C641C04988442DADB28
:1035500005480068112101EB80000A490860FEF768
:10356000F5FF012075E600002C000020440000203B
:1035700038000020119C0020400000205CE1002069
:10358000D6EF00203400002010B5F0231A460021A9
:103590000846FDF7C5FF10BD88B0142219A103A885
:1035A00000F0B8F800240025FEF74BF8FEF7C4F948
:1035B0004FF6FF70FEF75EF903A800F04AF80446E4
:1035C00003A86B1E01220021CDE900040320FFF7B0
:1035D00031FE00204FF6E0730FA2DC210090502056
:1035E000FDF757FF10480078401E152101EB8000C1
:1035F000C5B22A460A210846FDF7A2FD01E0FEF702
:10360000B5F9FCE7313233343561626368C4E3BA3B
:10361000C32F2F2E2E2E3E0068656C6C6F20776FA7
:10362000726C642100000000F41F0020704700BF8E
:10363000FEE700BFFEE700BFFEE700BFFEE7704702
:1036400070477047704700BF0100A0F10100FBD137
:10365000704710B5431C02E010F8011B71B18107DF
:10366000FAD14FF0013202C88C1A8C4314EAC2110D
:10367000F9D0C01A0A0603D0C01E10BDC01A10BD72
:103680000A0401D0801E10BD0902FCD0401E10BDEE
:10369000431A28BF9A4240F2BB80032A10441144C7
:1036A00040F2268010F0030F1EBF11F8013D521E9C
:1036B00000F8013D10F0030F7FF4F6AF11F00303A3
:1036C00000F0FE80083AC0F00B8051F8043D083A43
:1036D00051F804CD40F8043D40F804CDFFF7F3BFA6
:1036E000121D5CBF51F8043D40F8043DAFF300806B
:1036F000D20724BF11F8013D11F801CD48BF11F8E0
:10370000012C24BF00F8013D00F801CD48BF00F8AE
:10371000012C704710B5203AC0F00B80B1E818506A
:10372000203AA0E81850B1E81850A0E81850BFF4AB
:10373000F5AF5FEA027C24BFB1E81850A0E818504A
:1037400044BF18C918C0BDE810405FEA827C24BF9E
:1037500051F8043B40F8043B08BF7047D20728BF2C
:1037600031F8023B48BF11F8012B28BF20F8023B7B
:1037700048BF00F8012B70474FF000020429C0F049
:10378000128010F0030C00F01B80CCF1040CBCF193
:10379000020F18BF00F8012BA8BF20F8022BA1EBE5
:1037A0000C0100F00DB85FEAC17C24BF00F8012BCA
:1037B00000F8012B48BF00F8012B70474FF00002C2
:1037C00000B5134694469646203922BFA0E80C5017
:1037D000A0E80C50B1F12001BFF4F7AF090728BFF2
:1037E000A0E80C5048BF0CC05DF804EB890028BF6E
:1037F00040F8042B08BF704748BF20F8022B11F097
:10380000804F18BF00F8012B704770477047704712
:10381000032A40F2308010F0030C00F0158011F8FC
:10382000013BBCF1020F624498BF11F801CB00F8D4
:10383000013B38BF11F8013BA2F1040298BF00F828
:1038400001CB38BF00F8013B11F003033FF462AF36
:10385000083AC0F0088051F8043B083A51F804CB0C
:10386000A0E80810F5E7121D5CBF51F8043B40F8D2
:10387000043BAFF30080D20724BF11F8013B11F8DD
:1038800001CB48BF11F8012B24BF00F8013B00F821
:1038900001CB48BF00F8012B7047431A28BF9A425A
:1038A0007FF638AF104410F0030F11441EBF11F81B
:1038B000013D521E00F8013D10F0030F7FF4F6AFFA
:1038C000103AC0F00A8010B531E91850103A20E9DA
:1038D0001850BFF4F9AFBDE81040530724BF31E9D9
:1038E000081020E9081044BF51F8043D40F8043D99
:1038F00012F0030F08BF7047D20728BF31F8023D0E
:1039000048BF11F8012C28BF20F8023D48BF00F83D
:10391000012C7047754600F029F8AE46050069464F
:10392000534620F00700854618B020B5FDF7F6FB9A
:10393000BDE820404FF000064FF000074FF00008B0
:103940004FF0000B21F00701AC46ACE8C009ACE831
:10395000C009ACE8C009ACE8C0098D467047044610
:10396000AFF300802046FCF74EFC00000048704793
:1039700070F0002001491820ABBEFEE726000200CF
:103980007047000000000000000000000000000080
:103990000000000000101010101010100000181887
:1039A0000000001236244800000000000000000063
:1039B0000000000000242424FE484848FE484848EF
:1039C0000000000010385454503018141454543867
:1039D000101000000044A4A8A8A8541A2A2A2A44B7
:1039E000000000000030484848506EA49488897652
:1039F000000000606020C000000000000000000027
:103A0000000000020408081010101010100808042C
:103A100002000040201010080808080808101020B4
:103A20004000000000001010D63838D610100000FA
:103A300000000000000010101010FE101010100008
:103A400000000000000000000000000000006060B6
:103A500020C000000000000000007F000000000007
:103A60000000000000000000000000000000606096
:103A70000000000001020204040808101020204089
:103A800040000000001824424242424242422418B0
:103A90000000000000107010101010101010107CAA
:103AA00000000000003C4242420404081020427E14
:103AB00000000000003C4242041804020242443864
:103AC0000000000000040C14242444447E04041E5E
:103AD00000000000007E404040586402024244382A
:103AE00000000000001C2440405864424242241858
:103AF00000000000007E4444080810101010101050
:103B000000000000003C4242422418244242423C51
:103B100000000000001824424242261A0202243803
:103B20000000000000000000181800000000181835
:103B30000000000000000000001000000000001065
:103B40001020000000020408102040201008040289
:103B50000000000000000000FE000000FE00000069
:103B6000000000000040201008040204081020405B
:103B700000000000003C42426202040808001818DD
:103B8000000000000038445AAAAAAAAAB442443845
:103B900000000000001010182828243C444242E78E
:103BA0000000000000F8444444784442424244F893
:103BB00000000000003E4242808080808042443805
:103BC0000000000000F8444242424242424244F8AF
:103BD0000000000000FC424848784848404242FC4F
:103BE0000000000000FC424848784848404040E05F
:103BF00000000000003C44448080808E84444438AF
:103C00000000000000E7424242427E42424242E758
:103C100000000000007C1010101010101010107C1C
:103C200000000000003E0808080808080808080806
:103C300088F0000000EE444850705048484444EE7C
:103C40000000000000E0404040404040404042FE54
:103C50000000000000EE6C6C6C6C5454545454D64C
:103C60000000000000C7626252524A4A4A4646E2D9
:103C700000000000003844828282828282824438BE
:103C80000000000000FC424242427C40404040E0D4
:103C9000000000000038448282828282B2CA4C381E
:103CA0000600000000FC4242427C4848444442E393
:103CB00000000000003E4242402018040242427CC4
:103CC0000000000000FE92101010101010101038AC
:103CD0000000000000E74242424242424242423C6F
:103CE0000000000000E74242442424282818101055
:103CF0000000000000D692929292AAAA6C4444441A
:103D00000000000000E7422424181818242442E789
:103D10000000000000EE4444282810101010103855
:103D200000000000007E840408081020204242FCAD
:103D30000000001E101010101010101010101010A5
:103D40001E00000040402020101010080804040449
:103D50000202007808080808080808080808080887
:103D60007800001C2200000000000000000000009D
:103D70000000000000000000000000000000000043
:103D800000FF000000000000000000000000606074
:103D900020C0000000000000003C421E2242423FC2
:103DA0000000000000C04040405864424242645855
:103DB0000000000000000000001C22404040221CC7
:103DC0000000000000060202021E22424242261BA0
:103DD0000000000000000000003C427E4040423CE9
:103DE00000000000000F1110107E10101010107C49
:103DF0000000000000000000003E444438403C4207
:103E0000423C000000C04040405C6242424242E707
:103E10000000000000303000007010101010107C06
:103E200000000000000C0C00001C04040404040446
:103E30004478000000C04040404E4850684844EE7E
:103E40000000000000701010101010101010107CF6
:103E5000000000000000000000FE4949494949ED0A
:103E6000000000000000000000DC6242424242E725
:103E70000000000000000000003C42424242423C80
:103E8000000000000000000000D864424242447874
:103E900040E0000000000000001E22424242221EBC
:103EA000020700000000000000EE3220202020F871
:103EB0000000000000000000003E42403C02427C46
:103EC0000000000000000010107C10101010100CFA
:103ED000000000000000000000C642424242463B93
:103EE000000000000000000000E742242428101019
:103EF000000000000000000000D79292AAAA4444EB
:103F00000000000000000000006E2418181824763D
:103F1000000000000000000000E7422424281810E0
:103F200010E0000000000000007E44081010227E17
:103F30000000000000000000000000000000000081
:103F40000000000000000000000000000000000071
:103F50000000000000000000000000000000000061
:103F60000000000000000000000000000000000051
:103F70000000000000000000000000000000000041
:103F80000000020042024204420842307FC0420068
:103F90004200420042007FFE4200420042004200D6
:103FA0000000000208047C08081108E10F82F96291
:103FB00009140908491429E4380208030802080012
:103FC0000000082008C00B00FFFE0A0009880070EE
:103FD0007F824604458844508470858C86060004A0
:103FE000000008200620807E61800602200438043C
:103FF000270820D0202020D02708380C20060004D5
:104000000000000008403040244024402442A441E5
:1040100064FE254026402440204028403040004097
:10402000000010208C3F61C0060000017FE2400CC0
:104030004FF040087FE600001FE000020001FFFE95
:104040000000020042003BFE1004000809040904BD
:1040500009F809080908FF80086048183804081E94
:1040600000000100020104020904111861E00100CE
:1040700001020101C10231FC08000400020001003C
:10408000000009414A592C6A08C6FF44084A2C71AD
:104090004A0001010E02F1CC103010CC1F021001B9
:1040A000000010802090C4904490649854964490EE
:1040B0005F902492C49144BE64905490409040809C
:1040C000000004440CE63544C6480C480002400C8D
:1040D00040F17F0140C2403446085A3463C20001B7
:1040E00000004000400040004000400040007FFFD2
:1040F00040004000420041004080406040004000DD
:1041000000000100010001000100010001000100A8
:104110000100010001000100010001000100010097
:10412000000001000100020004000800100020004F
:10413000C3FF20001000080004000200010001007D
:104140000000100410081012106211821E82F0820A
:10415000108210FE10821082108210821002100253
:104160000000101010201040108013FF1C82F082FD
:104170001082108210821082108210FF1000100036
:1041800000002410246025807FFFC480446000006C
:10419000089110912922E65224CC29483050006021
:1041A0000000080108068FF86902090109FE0801EC
:1041B0001406E4F8240427FE2422242227222002C5
:1041C000000013101D18F11017FF1120112002001C
:1041D000124012D01748FA44124B125012600200DB
:1041E0000000010006001FFFE000042024222441FB
:1041F0007FFE44810402FFE4041884646582040F96
:104200000000000100217C21444244A27D92468CA2
:10421000448444887C9044A044C07C00000000009A
:10422000000000112012FFF4249024902498FFF441
:10423000201300063FF82200220023FF4200020064
:104240000000100010011002100410181FE091006F
:10425000710011021101110211FC10001000100078
:1042600000000408040C0408FFF004110412108478
:10427000108810B0FFC010B0108810841F82008119
:1042800000007FFE018003C007E00FF01FF83FFC35
:104290007FFEFFFF018003C007E00FF01FF83FFC27
:1042A0007FFE7FFE3FFC1FF80FF007E003C0018098
:1042B000FFFF7FFE3FFC1FF80FF007E003C0018007
:1042C0007FFE00100030007000F001F003F007F0F6
:1042D0000FF00FF007F003F001F000F00070003075
:1042E000001008000C000E000F000F800FC00FE040
:1042F0000FF00FF00FE00FC00F800F000E000C004A
:1043000008000000000000000000000000000000A5
:1043100000000000000000001FCC000C00000000A6
:10432000000000000800300060000800300060005D
:104330000000022003FC1E20022003FC1E2002209D
:10434000000000000E1811043FFF10840C780000DC
:1043500000000F0010840F3800C007781884007820
:10436000000000780F8410C411240E9800E400842B
:104370000008080068007000000000000000000055
:10438000000000000000000007E0181820044002B0
:104390000000000040022004181807E000000000A0
:1043A00000000240024001800FF001800240024004
:1043B00000000080008000800FF8008000800080F6
:1043C00000000001000D000E0000000000000000D1
:1043D00000000000008000800080008000800080DD
:1043E00000800000000C000C000000000000000035
:1043F00000000000000600180060018006001800A0
:104400002000000007F0080810041004080807F056
:1044100000000000080408041FFC00040004000061
:10442000000000000E0C10141024104411840E0C17
:10443000000000000C1810041104110412880C7004
:104440000000000000E00320042408241FFC0024D6
:10445000000000001F9810841104110410881070CF
:104460000000000007F0088811041104188800708B
:10447000000000001C00100010FC13001C001000C5
:10448000000000000E3811441084108411440E38CE
:10449000000000000700088C10441044088807F052
:1044A0000000000000000000030C030C00000000EE
:1044B00000000000000000010106000000000000F4
:1044C00000000000008001400220041008081004D1
:1044D00000000220022002200220022002200220EE
:1044E00000000000100408080410022001400080B1
:1044F000000000000E001200100C106C10800F0065
:10450000000003E00C1813E4142417C4082807D093
:1045100000000004003C03C41C40074000E4001CF1
:10452000000410041FFC1104110411040E88007013
:10453000000003E00C1810041004100410081C10F4
:10454000000010041FFC100410041004080807F0F9
:10455000000010041FFC1104110417C410040818F3
:10456000000010041FFC1104110017C01000080007
:10457000000003E00C181004100410441C780040E4
:10458000000010041FFC10840080008010841FFCB9
:1045900010040000100410041FFC1004100400009C
:1045A000000000030001100110011FFE10001000A8
:1045B000000010041FFC110403801464181C100474
:1045C000000010041FFC1004000400040004000C90
:1045D000000010041FFC1F0000FC1F001FFC100443
:1045E000000010041FFC0C04030000E010181FFC66
:1045F000100007F00808100410041004080807F061
:10460000000010041FFC10841080108010800F0028
:10461000000007F0081810241024101C080A07F2E4
:10462000000010041FFC1104110011C011300E0C09
:10463000000400000E1C11041084108410441C3867
:1046400000001800100010041FFC100410001800D7
:10465000000010001FF810040004000410041FF8EC
:10466000100010001E0011E0001C007013801C00E0
:1046700010001FC0103C00E01F0000E0103C1FC0F5
:1046800000001004180C163401C001C01634180CB8
:10469000100410001C00130400FC13041C00100084
:1046A00000000804101C1064108413041C0410186B
:1046B00000000000000000007FFE400240024002B7
:1046C0000000000030000C0003800060001C0003AC
:1046D000000000004002400240027FFE0000000097
:1046E00000000000000020004000400040002000CA
:1046F00000000001000100010001000100010001B3
:104700000001000040004000200000000000000008
:10471000000000000098012401440144014400FC11
:10472000000410001FFC00880104010400880070D0
:1047300000000000007000880104010401040088EA
:1047400000000000007000880104010411081FFC33
:104750000004000000F8014401440144014400C881
:1047600000000000010401040FFC110411041100F9
:104770001800000000D601290129012901C90106FC
:10478000000010041FFC008401000100010400FC73
:10479000000400000104190419FC000400040000D6
:1047A00000000000000300010101190119FE0000D2
:1047B000000010041FFC0024004001B4010C01049F
:1047C00000000000100410041FFC0004000400009E
:1047D0000000010401FC0104010001FC01040100CE
:1047E00000FC010401FC008401000100010400FC44
:1047F0000004000000F8010401040104010400F8B1
:104800000000010101FF008501040104008800701F
:10481000000000000070008801040104010501FF90
:1048200000010104010401FC008401040100018075
:104830000000000000CC012401240124012401987F
:10484000000000000100010007F80104010400005D
:104850000000010001F8000400040004010801FC4C
:104860000004010001800170000C00100160018053
:10487000010001F0010C003001C00030010C01F01A
:10488000010000000104018C00740170018C01041E
:104890000000010101810171000E0018016001801A
:1048A000010000000184010C013401440184010C69
:1048B0000000000000000000000001003EFC40027B
:1048C00040020000000000000000FFFF00000000A8
:1048D00000000000400240023EFC01000000000019
:1048E00000000000600080008000400040002000C8
:1048F0002000000000000000000000000000000098
:1049000000000000000000000000000000000000A7
:104910000000000000000000000000000000000097
:104920000000000000000000000000000000000087
:104930000000000000000000000000000000000077
:020000040802F0
:100AF00000000000140B020800000020B0210000DC
:100B00006C010008241B0208B021002020D5000041
:100B1000D0010008500600A24A0400016009010249
:100B20000304060708090C61100006AD020406085C
:100B300000011201D0121A04121304121004120D33
:100B40000402290934610C92100C920D0C02310937
:100B500094120294122C04122204121C4892166061
:100B6000021912C86134610C921C0C92160C0231ED
:100B7000109412039412460492379C521AE80219F8
:100B800016946134610C522CE01223CC92110C02A9
:100B9000310D94299112640412505C124068123095
:100BA0006096247C011694613425681632349220B4
:100BB0000C521858063519BC120594128604126C92
:100BC00068125698123E98562E7C02191E94613473
:100BD0002194164328562B1C1621B0920F0C0A1D87
:100BE0000B385A22C8610C1A0C8412069412AC04F9
:100BF000528898124C985A3C100A19228421C056E7
:100C000044682190921B0C92130C06310F28120796
:100C10009412C498129CFC167C941258F85242E824
:100C200029F0021526941662BC564EFC1631BC56AD
:100C30001F1C25C4520E940A1D27509604582D14CB
:100C40000352283C2DBD0412F29812C298129A98B1
:100C5000566EC45A021802152A941279985661BC2D
:100C6000523CBC52045892120C06110E64523DB014
:100C70002DF403562958610C5E0F8C041A2421129E
:100C8000E8981AB6285A84C05E02B80402152E9459
:100C90001292985E74B8035E3A18035204089210D8
:100CA0000C02110C94163B8056254C5E25A803615E
:100CB0000C2D2005120AF0125A9412129856D82CB4
:100CC000567A885E1C4803091E505A453C9A0650C5
:100CD0009A065025EC525728ED3C042DD00492146E
:100CE0000C5E10180312949016442C16FE2C16B4A9
:100CF000045A8C1C2D78030E153640041665E45EEC
:100D00005118045E5004045E040C0456164005128B
:100D1000285204385233D021085A174465282D7CB4
:100D20000316D22412729816222C1ECE88039A9E85
:100D3000B00A153A5025B85E5CB803A5BC522EF82F
:100D40005A078C5A0E801A7580D65DBC213C1E2F26
:100D50009C05DE15A80321981A142112AC98164E92
:100D60002C56F42C6D3C0406153E281E85A0045E0E
:100D70006B2403616496088C0E150CA004DE01142C
:100D800003922D946DA0042D7C0312459416CD2C56
:100D90001A6D5816052C56C57C69E40E1142900652
:100DA0001A91E45A73505E4064039A0BE4960BBCAC
:100DB0009E0114032DA4055E4164039A05E4960583
:100DC000BC252C168F28160B2C1A9F581E2784031F
:100DD00092DF945E30D006EDFC055A6DB8E1645E9A
:100DE000364404E1945E6EFC045E0500055E2A1C38
:100DF000055E3784069207942DA00812DD90164DEB
:100E00002C16C5C01A45EC92FD942DCC060E114A45
:100E100090065E7A38052D74055649849E0FC805E4
:100E20009203142D8C061E7B64045663645A4A7820
:100E3000AD78035A0D8C561038162F8D1687C01AB0
:100E4000FBEC1A6FEC4F1B0138036D78030E114E4B
:100E5000F0065A8750920A649E0178039A02E49E33
:100E600005BC062DA8035A4BDC9E0F78039A11E4AB
:100E70002D740512859416D12C1633C01E8D1804BE
:100E80009239941E38D8050E1152B8071E96CC051B
:100E90005E7874056DA0040215119429505E97FCCC
:100EA000059E04DC08920194921394210C16DF280D
:100EB000161B2C1673C01ABDEC9255945E3A6C0644
:100EC000E9E41A8DE49E718009662C745DDC039E52
:100ED00009F0062DA8031E8E14035E7210055647F6
:100EE000D85E041C096D480A6DF00625CC123D350C
:100EF000165D2C169DC01EE578035281946D0C047E
:100F000002115A9465BC5E03AC086DAC0669E49EA0
:100F10000F7004A5BC5E0D00065E2A840369E49E82
:100F20000AC80521D412849416A4C04FCA02CD0663
:100F30004F9601B4076D5C061E487007DE5EA00484
:100F40005E903805921164A5BC9A13B45E043C040B
:100F5000DE7594089E06C8056D40055E1190081266
:100F6000EA9416EEC0160EC01638C052BA94AD7888
:100F700003DE628407168BBC526F946D480396079C
:100F8000289E2254075E07B006DE7028099E100CCA
:100F900004A11829601A54B51646C01A5C54166686
:100FA000C056D028AD7803D66628A9B46D48039200
:100FB0000B949E1020042D14035E9840045E0E389E
:100FC0000A5E30B00565BC9E0E0C042D240912C2C9
:100FD000941696C01A92541E984005870202BC5E71
:100FE00036AC0BD66A745E93C4069E06A004A19428
:100FF000D61EBC1E94A803527694924A806D340586
:101000009602BC21A41E34010B16FCC01EE8140479
:101010001ECE1404521A946D84075E54EC09657454
:101020005E086809526A0C6528A5BC961628AD2092
:1010300007960D28961628AD3405293412AA941661
:101040005AC01A26581EF2A404875402BC6D0C0420
:101050009A72089E0ADC039213F89A1CE49A21E41F
:101060002D040A9E8F200761C4A9E49604282DDC74
:101070000B1E24950B16BCC01A68541E28D4058F6D
:101080007402A8076D0C04D6762869209616BC2D2C
:1010900024085E359805D60C285E996006AD5C067E
:1010A000961AEC961CD029341281941AFB541AA972
:1010B000541A67544F9502A807ED78039E7A1808D2
:1010C0006950920394DE0484076D04079A0A5096CF
:1010D00017589A1FE49A1F64221D641D290C1A5F79
:1010E000541AF3E81E8FA80452BD94ED78039E7E37
:1010F000EC0C6D7C089215949601289213949E072F
:1011000014039207949625289A1AF8293412899480
:1011100012C794165D2C1ED9FC0696E92852349409
:101120001E68400C9E82F0066D4009DE1354076174
:1011300064D6172861C49A0AE49619289E198C036C
:1011400025341E1349071A33541AAFE81A09548775
:101150001903286D84075E6CFC0E5E003C036DD4A1
:10116000099202F802152A949603589A1DE49601F2
:10117000BCA9502DF00312A19412A39416052C1EA5
:101180005B3C05524D945E22A80A5E5684055E8A39
:101190006805961128ADAC089E0A0C04A5BCEDA408
:1011A0000565589A23509E23B4042DB4031A338541
:1011B0005A17544F9304BC080E11050C0402118EEB
:1011C00094AD04050A151DE4DA018061949213942C
:1011D0009E2E48052DF00312C9941A8F541ABDE8AB
:1011E0001ECF3C0596C128AD0C04061192BCA194FB
:1011F0009E2CF0069E3B380A9606BCDE1764056DF1
:10120000C8059E01A00425401E3CE50D1A02541A93
:1012100014541A06E84FDA03340E0D1278035E9662
:10122000800D6DF006960C8C0E1527C8059E07D014
:10123000040E151AF0069E2970062D680C12DA9419
:101240001A82541A7AE81E4AD005431E04945E1886
:10125000A004524C945E8054109206949206949E80
:101260002E240C9E02A40B920E949E228407960AB2
:10127000BC9E4004072D24041E7C790E1606C01E59
:10128000C87C031E92D005524894ED84075E84907A
:101290000E921164961DBC9E3170040E1518C8057F
:1012A0009E0E48080A150A502DFC0D1A22211A8E8E
:1012B000541E36A8041EDE2408527694ED84072DB1
:1012C000A4125EA22C066D7C08920D949A30509E5A
:1012D0002ACC0C9212949E20240CA5BC9E202C0893
:1012E000290412CC9416FC281EA87C031A2EE8565A
:1012F000C6286D90065252942D0C045EA6300B6DDC
:1013000098059628BC9E2BE00DDE0AF0066DAC0811
:101310000E150718089E43C0082154167AF11A8C3E
:10132000541E1EA8045E82B8080E15060C045EAAA0
:10133000580C6DC0069E1270049E22AC089E145C70
:101340000629801E95E80C5E77E4066DC8059A2292
:10135000509E3D480800FF00010204081020408014
:101360001D3A74E8CD8713264C982D5AB475EAC9F6
:101370008F03060C183060C09D274E9C254A94357B
:101380006AD4B577EEC19F23468C050A142850A075
:101390005DBA69D2B96FDEA15FBE61C2992F5EBC32
:1013A00065CA890F1E3C78F0FDE7D3BB6BD6B17FD1
:1013B000FEE1DFA35BB671E2D9AF43861122448818
:1013C0000D1A3468D0BD67CE811F3E7CF8EDC793FF
:1013D0003B76ECC5973366CC85172E5CB86DDAA9E1
:1013E0004F9E214284152A54A84D9A2952A455AAE9
:1013F00049923972E4D5B773E6D1BF63C6913F7E97
:10140000FCE5D7B37BF6F1FFE3DBAB4B963162C46F
:1014100095376EDCA557AE4182193264C88D070E30
:101420001C3870E0DDA753A651A259B279F2F9EF4A
:10143000C39B2B56AC458A09122448903D7AF4F59B
:10144000F7F3FBEBCB8B0B162C58B07DFAE9CF836F
:101450001B366CD8AD471E8ECA0E00FF0001190264
:10146000321AC603DF33EE1B68C74B0464E00E3448
:101470008DEF811CC169F8C8084C71058A652FE1A0
:10148000240F2135938EDAF01282451DB5C27D6A94
:1014900027F9B9C99A09784DE472A606BF8B62662E
:1014A000DD30FDE29825B31091228836D094CE8F9E
:1014B00096DBBDF1D2135C833846401E42B6A3C30F
:1014C000487E6E6B3A2854FA85BA3DCA5E9B9F0AE5
:1014D00015792B4ED4E5AC73F3A7570770C0F78C82
:1014E00080630D674ADEED31C5FE18E3A5997726C6
:1014F000B8B47C114492D92320892E373FD15B9513
:10150000BCCFCD908797B2DCFCBE61F256D3AB1452
:101510002A5D9E843C3953476D41A21F2D43D8B7A5
:101520007BA476C41749EC7F0C6FF66CA13B522963
:101530009D55AAFB6086B1BBCC3E5ACB595FB09C8F
:10154000A9A0510BF516EB7A752CD74FAED5E9E66D
:10155000E7ADE874D6F4EAA85058AF00FF0057E5AD
:101560009295EE6615FB432E3D7646405E202D4A51
:1015700098B06456646A6882DACE8C4E08B73D5BD8
:10158000CA25333A3AED8C7C05636978686B6D66E1
:10159000A14C035BBF93A9B6C2E1782B8BCE4E2B37
:1015A000EF7BCED69318639627F3A388D7EA9E5E87
:1015B000B86176AA4FBB9894FCB305626099113C60
:1015C0004F323DA31ABBCAB4DDE153EF9CA4D4D47F
:1015D000BCBED2ABF7F25DE60E6DDD35C84A08AC95
:1015E0006250DB86A069A5E7E5798730D375FB7E7D
:1015F0009FB4A998C0E2E4DA6F0075E85760E3157C
:10160000AD7D9E0267B6761191C96F1CA535A115F7
:10161000F58E0D6630E39991DA46A8DFC868E0EAF6
:101620006CB46EBEC393CD1BE8C9152BF5572AC306
:10163000D477F225097B29AD9198D81FB3B6323003
:101640006E56EF60DE7D2AADE2C1E0829C25FBD8BC
:10165000EE28C0B40A066ABEF9A7044300FF00D111
:101660008A8A20F27B591B78B9509C2645AB3C1CDA
:10167000DE5034FEB9DCF16F4D925E1A156C1369C1
:101680005E71C1568CA37D3A9EE5EFDA67384672EB
:101690003DB781A70D623E8133C8B76210AC1FF61B
:1016A000EA3C987300A79871F8EE6B123FDA255761
:1016B000D269B1784A79C475FB71E91E789F2226F8
:1016C000E4E63BF35F31DAB0A414412D6F275131CA
:1016D0007671DEC1FAF2A8D929A4F7B11EEE12780C
:1016E000993CC13B744FA1FC6280CD80A1F739A326
:1016F00038EB6A351ABBAEE268AA07AF23B5725859
:10170000292FA37D864814E835230FFA67DDE619F3
:101710001289E700033AF2DDBF6E54E608BC6A6046
:10172000930F838B2265DF2765D5C7EDFEC97BABA1
:10173000A2C2753260BE073D7947F64537A8BC594D
:10174000F3BF19487B09910EF701EE2C4E8F3EE056
:101750007E767244A334C2D993CCA9258200FF00BF
:10176000716649B5705E5870FDE0CA73BB63590578
:101770003671812C3A1087D8A9D3240104603CF13A
:101780004968EA08F9F577AE34199DE02BCADF13F2
:10179000520FE419C482D3923C18FB5A2766F03DDD
:1017A000B23F2E7B7312DD6F87A0B6CD6BCE5F96F6
:1017B00078B85B15F79C8CEEBF0B5EE35432A32721
:1017C000226CE87D9DA1A409762ED163CBC12303B1
:1017D000D16FC3F2CBE12E0D20A07ED182A0F2D733
:1017E000F24B4D2ABD2071417C45E472EBAF7CAADF
:1017F000D7E885CD743256BA32DCFB59C02E567FFD
:101800007C13B8E997D7160E3B9125F2CB86FE598B
:10181000BE5E3B417C7164E9EB79164C566127F260
:10182000C8DC6521EFFE7433B71AC957D2DD7115D4
:101830002E412D32EEB8F9E1663AD1DA6DA51A5F84
:10184000B8C034F523FEEEAFAC4F7B197A2B786C21
:10185000D75080C9EB08993B651FC64C1F9C00FF01
:10186000006A786B9DA4D87074025BF8A324C9CA7F
:10187000E50690FE9B87D0AAD10C8B7F8EB6F9B17E
:10188000AEBE1C0A55EFB8657C98CE6017A33D1B11
:10189000C4F7979ACACF143D0A52741AF7421B3EF6
:1018A0006BFCB6C8B9EB37FBF2D2909AEDB08DC0A5
:1018B000F898F9CE55FD8E41A57D17181E7AF0D601
:1018C0000681DA1D917F86CEF5751D293F9F8EE931
:1018D0007D947B6B8C1A0C098DF3C5E2C5DB2DD38F
:1018E00065DB781CB57F0664F702CDC63973DB650E
:1018F0006DA0522526EE31A0D179560B7C1EB55431
:1019000019C2574166BEDC461BD110590721F04170
:10191000CA716247DFF876D65E007A251702E43A8C
:10192000790769874EF376464CDF594832466FC2D5
:1019300011D47EB523DD75EB0BE595937BD528732C
:1019400006C8641AF6B6DA7FD724BA6E6A2D33AFAA
:1019500009079E9F3144775C7BB1CCBBFEC84E0C1F
:10196000B51A8D95771A7F35A05DC7D41D18919C47
:10197000D096DAD104D85B2FB8922F8CC3C37DF2F6
:10198000EE3F636C8CE6F21FCC0BB2F3D99CD5E72B
:101990000576DEB48888A2332E750DD751118BF7EA
:1019A000C5AB5FAD4189B2446F5F652948D6A9C513
:1019B0005F072C9A4D6FEC28798F3F5750FDF07ED2
:1019C000D94D22E86A32A8524C92436AAB19845D21
:1019D0002D69F79FDF21E05D4D465AA020FE2B9632
:1019E0005465BECD85343CCAA5DCCB975D540F54FD
:1019F000FDADA059E334C7615FE734B1297D89F1BA
:101A0000A6E17602362052D7AFC62BEEEB1B65B8A7
:101A10007F030508A3EE701A3FF819E71B310C92FB
:101A2000FF0C43091A181216081225041235045225
:101A30004614525808526C08528208529A0852B4FE
:101A40000852D00852EE4C430E1B405230085254FC
:101A500008527A0852A20852CC0852F83043261C89
:101A60007852560852880852BC0852F220432A1D68
:101A70009852640852A00852DE18431E1E201260BD
:101A8000089E0A64175E0980165E0DA8185E10286D
:101A9000175E0884132D300B400F7F415D5D5D4163
:101AA0007F1F1115111F0001012DEE142D09077163
:101AB0000F5D8C1E51182D0620112121043DA31EFF
:101AC00031083112511552001BB115712C412A8277
:101AD000000D7154517E713D717D61749D5116519F
:101AE000A57201054121911A4D401F62015B61B74A
:101AF000512881058192820144DE01C2165160C2E3
:101B0000019A41DD716C5142616C860111719685BB
:101B10002D61F8A6012D8569A526C5427526B5411A
:041B200000000000C1
:0400000508000131BD
:00000001FF
